:020000040000FA
:0410000010EF08F0F5
:021004000000EA
:041008000EEF18F0DF
:0410180024EF18F0B9
:10102000C00E006E030E016E900E026E920E036EE5
:10103000940E046E960E056E020E066E400E076E3E
:10104000410E086E420E096E430E0A6E440E0B6E80
:10105000450E0C6E810E0D6E820E0E6E830E0F6E9F
:10106000A00E106EB00E116E050E126E166A176A83
:10107000186A300E206E216E156A800E9B6E700EFF
:10108000D36E000ED26E986A60966286896A5B6B38
:10109000000E926E050E936EEC0E8A6E5C6B8B6A80
:1010A0005D6B420E946E000EC76E210EC66E100E62
:1010B000CB6E800ED06E180EF26EE80EF16E900EB2
:1010C000F06E420E876E080E9D6E9E6AF28E21EEC5
:1010D00000F015C0DEFF152A000ED962FAD71650AF
:1010E0007F0BFDE016B01AD016B21ED016BEF7D791
:1010F00010EE30F020EE40F016B404D0169604C086
:10110000E7FF03D0169402C0E7FF2E0E216E300ECB
:10111000186E176A168EE6CFC9FFE1D71690FB6AE4
:0811200018C0FAFF1750F96E28
:10300000C9CFDEFFE150211A05E120C021F0169E54
:103010006FEF08F0E6CFC9FF6FEF08F09EB618EC2F
:1030200018F0F0B21BEC18F0F2B01EEC18F0100023
:1030300016809E9612001682F092120082A21684CA
:0C30400082AC1686F29012000000100016
:00000001FF
